{
  "_format": "hh-sol-artifact-1",
  "contractName": "CrowdRiser",
  "sourceName": "contracts/CrowdRiser.sol",
  "abi": [
    {
      "inputs": [
        {
          "internalType": "uint256",
          "name": "_projectTax",
          "type": "uint256"
        }
      ],
      "stateMutability": "nonpayable",
      "type": "constructor"
    },
    {
      "anonymous": false,
      "inputs": [
        {
          "indexed": false,
          "internalType": "uint256",
          "name": "id",
          "type": "uint256"
        },
        {
          "indexed": false,
          "internalType": "string",
          "name": "actionType",
          "type": "string"
        },
        {
          "indexed": true,
          "internalType": "address",
          "name": "executor",
          "type": "address"
        },
        {
          "indexed": false,
          "internalType": "uint256",
          "name": "timestamp",
          "type": "uint256"
        }
      ],
      "name": "Action",
      "type": "event"
    },
    {
      "inputs": [
        {
          "internalType": "uint256",
          "name": "id",
          "type": "uint256"
        }
      ],
      "name": "backProject",
      "outputs": [
        {
          "internalType": "bool",
          "name": "",
          "type": "bool"
        }
      ],
      "stateMutability": "payable",
      "type": "function"
    },
    {
      "inputs": [],
      "name": "balance",
      "outputs": [
        {
          "internalType": "uint256",
          "name": "",
          "type": "uint256"
        }
      ],
      "stateMutability": "view",
      "type": "function"
    },
    {
      "inputs": [
        {
          "internalType": "uint256",
          "name": "_taxPct",
          "type": "uint256"
        }
      ],
      "name": "changeTax",
      "outputs": [],
      "stateMutability": "nonpayable",
      "type": "function"
    },
    {
      "inputs": [
        {
          "internalType": "string",
          "name": "title",
          "type": "string"
        },
        {
          "internalType": "string",
          "name": "description",
          "type": "string"
        },
        {
          "internalType": "string",
          "name": "imageURL",
          "type": "string"
        },
        {
          "internalType": "uint256",
          "name": "cost",
          "type": "uint256"
        },
        {
          "internalType": "uint256",
          "name": "expiresAt",
          "type": "uint256"
        }
      ],
      "name": "createProject",
      "outputs": [
        {
          "internalType": "bool",
          "name": "",
          "type": "bool"
        }
      ],
      "stateMutability": "nonpayable",
      "type": "function"
    },
    {
      "inputs": [
        {
          "internalType": "uint256",
          "name": "id",
          "type": "uint256"
        }
      ],
      "name": "deleteProject",
      "outputs": [
        {
          "internalType": "bool",
          "name": "",
          "type": "bool"
        }
      ],
      "stateMutability": "nonpayable",
      "type": "function"
    },
    {
      "inputs": [
        {
          "internalType": "uint256",
          "name": "id",
          "type": "uint256"
        }
      ],
      "name": "getBackers",
      "outputs": [
        {
          "components": [
            {
              "internalType": "address",
              "name": "owner",
              "type": "address"
            },
            {
              "internalType": "uint256",
              "name": "contribution",
              "type": "uint256"
            },
            {
              "internalType": "uint256",
              "name": "timestamp",
              "type": "uint256"
            },
            {
              "internalType": "bool",
              "name": "refunded",
              "type": "bool"
            }
          ],
          "internalType": "struct CrowdRiser.backerStruct[]",
          "name": "",
          "type": "tuple[]"
        }
      ],
      "stateMutability": "view",
      "type": "function"
    },
    {
      "inputs": [
        {
          "internalType": "uint256",
          "name": "id",
          "type": "uint256"
        }
      ],
      "name": "getProject",
      "outputs": [
        {
          "components": [
            {
              "internalType": "uint256",
              "name": "id",
              "type": "uint256"
            },
            {
              "internalType": "address",
              "name": "owner",
              "type": "address"
            },
            {
              "internalType": "string",
              "name": "title",
              "type": "string"
            },
            {
              "internalType": "string",
              "name": "description",
              "type": "string"
            },
            {
              "internalType": "string",
              "name": "imageURL",
              "type": "string"
            },
            {
              "internalType": "uint256",
              "name": "cost",
              "type": "uint256"
            },
            {
              "internalType": "uint256",
              "name": "raised",
              "type": "uint256"
            },
            {
              "internalType": "uint256",
              "name": "timestamp",
              "type": "uint256"
            },
            {
              "internalType": "uint256",
              "name": "expiresAt",
              "type": "uint256"
            },
            {
              "internalType": "uint256",
              "name": "backers",
              "type": "uint256"
            },
            {
              "internalType": "enum CrowdRiser.statusEnum",
              "name": "status",
              "type": "uint8"
            }
          ],
          "internalType": "struct CrowdRiser.projectStruct",
          "name": "",
          "type": "tuple"
        }
      ],
      "stateMutability": "view",
      "type": "function"
    },
    {
      "inputs": [],
      "name": "getProjects",
      "outputs": [
        {
          "components": [
            {
              "internalType": "uint256",
              "name": "id",
              "type": "uint256"
            },
            {
              "internalType": "address",
              "name": "owner",
              "type": "address"
            },
            {
              "internalType": "string",
              "name": "title",
              "type": "string"
            },
            {
              "internalType": "string",
              "name": "description",
              "type": "string"
            },
            {
              "internalType": "string",
              "name": "imageURL",
              "type": "string"
            },
            {
              "internalType": "uint256",
              "name": "cost",
              "type": "uint256"
            },
            {
              "internalType": "uint256",
              "name": "raised",
              "type": "uint256"
            },
            {
              "internalType": "uint256",
              "name": "timestamp",
              "type": "uint256"
            },
            {
              "internalType": "uint256",
              "name": "expiresAt",
              "type": "uint256"
            },
            {
              "internalType": "uint256",
              "name": "backers",
              "type": "uint256"
            },
            {
              "internalType": "enum CrowdRiser.statusEnum",
              "name": "status",
              "type": "uint8"
            }
          ],
          "internalType": "struct CrowdRiser.projectStruct[]",
          "name": "",
          "type": "tuple[]"
        }
      ],
      "stateMutability": "view",
      "type": "function"
    },
    {
      "inputs": [],
      "name": "owner",
      "outputs": [
        {
          "internalType": "address",
          "name": "",
          "type": "address"
        }
      ],
      "stateMutability": "view",
      "type": "function"
    },
    {
      "inputs": [
        {
          "internalType": "uint256",
          "name": "id",
          "type": "uint256"
        }
      ],
      "name": "payOutProject",
      "outputs": [
        {
          "internalType": "bool",
          "name": "",
          "type": "bool"
        }
      ],
      "stateMutability": "nonpayable",
      "type": "function"
    },
    {
      "inputs": [],
      "name": "projectCount",
      "outputs": [
        {
          "internalType": "uint256",
          "name": "",
          "type": "uint256"
        }
      ],
      "stateMutability": "view",
      "type": "function"
    },
    {
      "inputs": [
        {
          "internalType": "uint256",
          "name": "",
          "type": "uint256"
        }
      ],
      "name": "projectExist",
      "outputs": [
        {
          "internalType": "bool",
          "name": "",
          "type": "bool"
        }
      ],
      "stateMutability": "view",
      "type": "function"
    },
    {
      "inputs": [],
      "name": "projectTax",
      "outputs": [
        {
          "internalType": "uint256",
          "name": "",
          "type": "uint256"
        }
      ],
      "stateMutability": "view",
      "type": "function"
    },
    {
      "inputs": [
        {
          "internalType": "uint256",
          "name": "id",
          "type": "uint256"
        }
      ],
      "name": "requestRefund",
      "outputs": [
        {
          "internalType": "bool",
          "name": "",
          "type": "bool"
        }
      ],
      "stateMutability": "nonpayable",
      "type": "function"
    },
    {
      "inputs": [],
      "name": "stats",
      "outputs": [
        {
          "internalType": "uint256",
          "name": "totalProjects",
          "type": "uint256"
        },
        {
          "internalType": "uint256",
          "name": "totalBacking",
          "type": "uint256"
        },
        {
          "internalType": "uint256",
          "name": "totalDonations",
          "type": "uint256"
        }
      ],
      "stateMutability": "view",
      "type": "function"
    },
    {
      "inputs": [
        {
          "internalType": "uint256",
          "name": "id",
          "type": "uint256"
        },
        {
          "internalType": "string",
          "name": "title",
          "type": "string"
        },
        {
          "internalType": "string",
          "name": "description",
          "type": "string"
        },
        {
          "internalType": "string",
          "name": "imageURL",
          "type": "string"
        },
        {
          "internalType": "uint256",
          "name": "expiresAt",
          "type": "uint256"
        }
      ],
      "name": "updateProject",
      "outputs": [
        {
          "internalType": "bool",
          "name": "",
          "type": "bool"
        }
      ],
      "stateMutability": "nonpayable",
      "type": "function"
    }
  ],
  "bytecode": "0x608060405234801561001057600080fd5b506040516122ac3803806122ac83398101604081905261002f91610049565b600080546001600160a01b03191633179055600155610062565b60006020828403121561005b57600080fd5b5051919050565b61223b806100716000396000f3fe6080604052600436106100f35760003560e01c8063a4b2409e1161008a578063d24cd3ec11610059578063d24cd3ec146102b1578063d80528ae146102c7578063dcc6012814610301578063f0f3f2c81461032357600080fd5b8063a4b2409e1461022e578063b531dcba1461024e578063b69ef8a81461026e578063c9168b721461028457600080fd5b80638593054b116100c65780638593054b146101935780638da5cb5b146101c35780639a3fa8c7146101fb5780639f39a1941461021b57600080fd5b8063056c29ee146100f857806336fbad261461012d5780633e45c8af146101515780634cd0cb2814610173575b600080fd5b34801561010457600080fd5b50610118610113366004611c4b565b610350565b60405190151581526020015b60405180910390f35b34801561013957600080fd5b5061014360025481565b604051908152602001610124565b34801561015d57600080fd5b5061017161016c366004611ce5565b610793565b005b34801561017f57600080fd5b5061011861018e366004611ce5565b6107e8565b34801561019f57600080fd5b506101186101ae366004611ce5565b600a6020526000908152604090205460ff1681565b3480156101cf57600080fd5b506000546101e3906001600160a01b031681565b6040516001600160a01b039091168152602001610124565b34801561020757600080fd5b50610118610216366004611cfe565b610979565b610118610229366004611ce5565b610bdb565b34801561023a57600080fd5b50610118610249366004611ce5565b610fe8565b34801561025a57600080fd5b50610118610269366004611ce5565b6110df565b34801561027a57600080fd5b5061014360035481565b34801561029057600080fd5b506102a461029f366004611ce5565b6111ce565b6040516101249190611d98565b3480156102bd57600080fd5b5061014360015481565b3480156102d357600080fd5b506004546005546006546102e692919083565b60408051938452602084019290925290820152606001610124565b34801561030d57600080fd5b50610316611270565b6040516101249190611f4a565b34801561032f57600080fd5b5061034361033e366004611ce5565b61150b565b6040516101249190611fac565b60008086511161039f5760405162461bcd60e51b81526020600482015260156024820152745469746c652063616e6e6f7420626520656d70747960581b60448201526064015b60405180910390fd5b60008551116103f05760405162461bcd60e51b815260206004820152601b60248201527f4465736372697074696f6e2063616e6e6f7420626520656d70747900000000006044820152606401610396565b600084511161043c5760405162461bcd60e51b8152602060048201526018602482015277496d61676555524c2063616e6e6f7420626520656d70747960401b6044820152606401610396565b600083116104825760405162461bcd60e51b8152602060048201526013602482015272436f73742063616e6e6f74206265207a65726f60681b6044820152606401610396565b61048a611b35565b6002548152336020820190815260408201888152606083018890526080830187905260a083018690524260e084015261010083018590526007805460018101825560009190915283517fa66cc928b5edb82af9bd49922954155ab7b0942694bea4ce44661d9a8736c688600b90920291820190815592517fa66cc928b5edb82af9bd49922954155ab7b0942694bea4ce44661d9a8736c689820180546001600160a01b0319166001600160a01b0390921691909117905590518392917fa66cc928b5edb82af9bd49922954155ab7b0942694bea4ce44661d9a8736c68a0190610573908261204e565b5060608201516003820190610588908261204e565b506080820151600482019061059d908261204e565b5060a0820151600582015560c0820151600682015560e0820151600782015561010082015160088201556101208201516009820155610140820151600a8201805460ff191660018360048111156105f6576105f6611e4d565b021790555050600280546000908152600a602090815260408083208054600160ff1990911681179091553384526008835281842080548083018255908552938390208751600b909502019384559186015191830180546001600160a01b0319166001600160a01b0390931692909217909155840151849350909182019061067d908261204e565b5060608201516003820190610692908261204e565b50608082015160048201906106a7908261204e565b5060a0820151600582015560c0820151600682015560e0820151600782015561010082015160088201556101208201516009820155610140820151600a8201805460ff1916600183600481111561070057610700611e4d565b0217905550505060016004600001600082825461071d9190612124565b90915550506002805433916000805160206121e6833981519152919060006107448361213d565b9091555060408051918252606060208301819052600f908301526e141493d29150d50810d49150551151608a1b6080830152429082015260a00160405180910390a25060019695505050505050565b6000546001600160a01b031633146107e35760405162461bcd60e51b81526020600482015260136024820152724f776e6572207265736572766564206f6e6c7960681b6044820152606401610396565b600155565b600080600783815481106107fe576107fe612156565b60009182526020909120600a600b90920201015460ff16600481111561082657610826611e4d565b1461086e5760405162461bcd60e51b8152602060048201526018602482015277141c9bda9958dd081b9bc81b1bdb99d95c881bdc195b995960421b6044820152606401610396565b6007828154811061088157610881612156565b60009182526020909120600b90910201600101546001600160a01b03163314806108b557506000546001600160a01b031633145b6108d15760405162461bcd60e51b81526004016103969061216c565b6003600783815481106108e6576108e6612156565b60009182526020909120600a600b9092020101805460ff1916600183600481111561091357610913611e4d565b0217905550610921826117eb565b60408051838152606060208201819052600f908201526e141493d29150d50811115311551151608a1b60808201524281830152905133916000805160206121e6833981519152919081900360a00190a2506001919050565b60006007868154811061098e5761098e612156565b60009182526020909120600b90910201600101546001600160a01b031633146109c95760405162461bcd60e51b81526004016103969061216c565b6000855111610a125760405162461bcd60e51b81526020600482015260156024820152745469746c652063616e6e6f7420626520656d70747960581b6044820152606401610396565b6000845111610a635760405162461bcd60e51b815260206004820152601b60248201527f4465736372697074696f6e2063616e6e6f7420626520656d70747900000000006044820152606401610396565b6000835111610aaf5760405162461bcd60e51b8152602060048201526018602482015277496d61676555524c2063616e6e6f7420626520656d70747960401b6044820152606401610396565b8460078781548110610ac357610ac3612156565b90600052602060002090600b02016002019081610ae0919061204e565b508360078781548110610af557610af5612156565b90600052602060002090600b02016003019081610b12919061204e565b508260078781548110610b2757610b27612156565b90600052602060002090600b02016004019081610b44919061204e565b508160078781548110610b5957610b59612156565b90600052602060002090600b020160080181905550336001600160a01b03166000805160206121e68339815191528742604051610bc7929190918252606060208301819052600f908301526e141493d29150d50815541110551151608a1b6080830152604082015260a00190565b60405180910390a250600195945050505050565b6000803411610c2c5760405162461bcd60e51b815260206004820152601f60248201527f4574686572206d7573742062652067726561746572207468616e207a65726f006044820152606401610396565b6000828152600a602052604090205460ff16610c7e5760405162461bcd60e51b8152602060048201526011602482015270141c9bda9958dd081b9bdd08199bdd5b99607a1b6044820152606401610396565b600060078381548110610c9357610c93612156565b60009182526020909120600a600b90920201015460ff166004811115610cbb57610cbb611e4d565b14610d035760405162461bcd60e51b8152602060048201526018602482015277141c9bda9958dd081b9bc81b1bdb99d95c881bdc195b995960421b6044820152606401610396565b600160046001016000828254610d199190612124565b909155505060068054349190600090610d33908490612124565b925050819055503460078381548110610d4e57610d4e612156565b90600052602060002090600b02016006016000828254610d6e9190612124565b92505081905550600160078381548110610d8a57610d8a612156565b90600052602060002090600b02016009016000828254610daa9190612124565b9091555050600082815260096020908152604080832081516080808201845233808352348387019081524284870181815260608087018b8152885460018082018b55998d529b8b902097516004909c0290970180546001600160a01b0319166001600160a01b03909c169b909b178b559251968a01969096559451600289015592516003909701805460ff1916971515979097179096558351888152948501829052600e918501919091526d141493d29150d508109050d2d15160921b90840152908201526000805160206121e68339815191529060a00160405180910390a260078281548110610e9d57610e9d612156565b90600052602060002090600b02016005015460078381548110610ec257610ec2612156565b90600052602060002090600b02016006015410610f6d57600160078381548110610eee57610eee612156565b60009182526020909120600a600b9092020101805460ff19166001836004811115610f1b57610f1b611e4d565b021790555060078281548110610f3357610f33612156565b90600052602060002090600b02016006015460036000828254610f569190612124565b90915550610f65905082611959565b506001919050565b60078281548110610f8057610f80612156565b90600052602060002090600b0201600801544210610f6557600260078381548110610fad57610fad612156565b60009182526020909120600a600b9092020101805460ff19166001836004811115610fda57610fda611e4d565b0217905550610f65826117eb565b6000600260078381548110610fff57610fff612156565b60009182526020909120600a600b90920201015460ff16600481111561102757611027611e4d565b14158061106f575060036007838154811061104457611044612156565b60009182526020909120600a600b90920201015460ff16600481111561106c5761106c611e4d565b14155b6110ca5760405162461bcd60e51b815260206004820152602660248201527f50726f6a656374206e6f74206d61726b656420617320726576657274206f722060448201526564656c65746560d01b6064820152608401610396565b600260078381548110610fad57610fad612156565b60006001600783815481106110f6576110f6612156565b60009182526020909120600a600b90920201015460ff16600481111561111e5761111e611e4d565b146111625760405162461bcd60e51b8152602060048201526014602482015273141c9bda9958dd081b9bdd081054141493d5915160621b6044820152606401610396565b6007828154811061117557611175612156565b60009182526020909120600b90910201600101546001600160a01b03163314806111a957506000546001600160a01b031633145b6111c55760405162461bcd60e51b81526004016103969061216c565b610f6582611959565b606060096000838152602001908152602001600020805480602002602001604051908101604052809291908181526020016000905b82821015611265576000848152602090819020604080516080810182526004860290920180546001600160a01b03168352600180820154848601526002820154928401929092526003015460ff16151560608301529083529092019101611203565b505050509050919050565b60606007805480602002602001604051908101604052809291908181526020016000905b828210156115025760008481526020908190206040805161016081018252600b86029092018054835260018101546001600160a01b031693830193909352600283018054929392918401916112e890611fc6565b80601f016020809104026020016040519081016040528092919081815260200182805461131490611fc6565b80156113615780601f1061133657610100808354040283529160200191611361565b820191906000526020600020905b81548152906001019060200180831161134457829003601f168201915b5050505050815260200160038201805461137a90611fc6565b80601f01602080910402602001604051908101604052809291908181526020018280546113a690611fc6565b80156113f35780601f106113c8576101008083540402835291602001916113f3565b820191906000526020600020905b8154815290600101906020018083116113d657829003601f168201915b5050505050815260200160048201805461140c90611fc6565b80601f016020809104026020016040519081016040528092919081815260200182805461143890611fc6565b80156114855780601f1061145a57610100808354040283529160200191611485565b820191906000526020600020905b81548152906001019060200180831161146857829003601f168201915b505050918352505060058201546020820152600682015460408201526007820154606082015260088201546080820152600982015460a0820152600a82015460c09091019060ff1660048111156114de576114de611e4d565b60048111156114ef576114ef611e4d565b8152505081526020019060010190611294565b50505050905090565b611513611b35565b6000828152600a602052604090205460ff166115655760405162461bcd60e51b8152602060048201526011602482015270141c9bda9958dd081b9bdd08199bdd5b99607a1b6044820152606401610396565b6007828154811061157857611578612156565b90600052602060002090600b020160405180610160016040529081600082015481526020016001820160009054906101000a90046001600160a01b03166001600160a01b03166001600160a01b031681526020016002820180546115db90611fc6565b80601f016020809104026020016040519081016040528092919081815260200182805461160790611fc6565b80156116545780601f1061162957610100808354040283529160200191611654565b820191906000526020600020905b81548152906001019060200180831161163757829003601f168201915b5050505050815260200160038201805461166d90611fc6565b80601f016020809104026020016040519081016040528092919081815260200182805461169990611fc6565b80156116e65780601f106116bb576101008083540402835291602001916116e6565b820191906000526020600020905b8154815290600101906020018083116116c957829003601f168201915b505050505081526020016004820180546116ff90611fc6565b80601f016020809104026020016040519081016040528092919081815260200182805461172b90611fc6565b80156117785780601f1061174d57610100808354040283529160200191611778565b820191906000526020600020905b81548152906001019060200180831161175b57829003601f168201915b505050918352505060058201546020820152600682015460408201526007820154606082015260088201546080820152600982015460a0820152600a82015460c09091019060ff1660048111156117d1576117d1611e4d565b60048111156117e2576117e2611e4d565b90525092915050565b60005b60008281526009602052604090205481101561195557600082815260096020526040812080548390811061182457611824612156565b6000918252602080832060049092029091015485835260099091526040822080546001600160a01b039092169350908490811061186357611863612156565b9060005260206000209060040201600101549050600160096000868152602001908152602001600020848154811061189d5761189d612156565b906000526020600020906004020160030160006101000a81548160ff021916908315150217905550426009600086815260200190815260200160002084815481106118ea576118ea612156565b9060005260206000209060040201600201819055506119098282611ad0565b60016004600101600082825461191f9190612199565b909155505060068054829190600090611939908490612199565b925050819055505050808061194d9061213d565b9150506117ee565b5050565b60006007828154811061196e5761196e612156565b90600052602060002090600b0201600601549050600060646001548361199491906121ac565b61199e91906121c3565b90506004600784815481106119b5576119b5612156565b60009182526020909120600a600b9092020101805460ff191660018360048111156119e2576119e2611e4d565b0217905550611a29600784815481106119fd576119fd612156565b600091825260209091206001600b9092020101546001600160a01b0316611a248385612199565b611ad0565b600054611a3f906001600160a01b031682611ad0565b60078381548110611a5257611a52612156565b90600052602060002090600b02016006015460036000828254611a759190612199565b9091555050604080518481526060602082018190526010908201526f141493d29150d508141052510813d55560821b60808201524281830152905133916000805160206121e6833981519152919081900360a00190a2505050565b6000826001600160a01b03168260405160006040518083038185875af1925050503d8060008114611b1d576040519150601f19603f3d011682016040523d82523d6000602084013e611b22565b606091505b5050905080611b3057600080fd5b505050565b6040518061016001604052806000815260200160006001600160a01b03168152602001606081526020016060815260200160608152602001600081526020016000815260200160008152602001600081526020016000815260200160006004811115611ba357611ba3611e4d565b905290565b634e487b7160e01b600052604160045260246000fd5b600082601f830112611bcf57600080fd5b813567ffffffffffffffff80821115611bea57611bea611ba8565b604051601f8301601f19908116603f01168101908282118183101715611c1257611c12611ba8565b81604052838152866020858801011115611c2b57600080fd5b836020870160208301376000602085830101528094505050505092915050565b600080600080600060a08688031215611c6357600080fd5b853567ffffffffffffffff80821115611c7b57600080fd5b611c8789838a01611bbe565b96506020880135915080821115611c9d57600080fd5b611ca989838a01611bbe565b95506040880135915080821115611cbf57600080fd5b50611ccc88828901611bbe565b9598949750949560608101359550608001359392505050565b600060208284031215611cf757600080fd5b5035919050565b600080600080600060a08688031215611d1657600080fd5b85359450602086013567ffffffffffffffff80821115611d3557600080fd5b611d4189838a01611bbe565b95506040880135915080821115611d5757600080fd5b611d6389838a01611bbe565b94506060880135915080821115611d7957600080fd5b50611d8688828901611bbe565b95989497509295608001359392505050565b602080825282518282018190526000919060409081850190868401855b82811015611dfa57815180516001600160a01b031685528681015187860152858101518686015260609081015115159085015260809093019290850190600101611db5565b5091979650505050505050565b6000815180845260005b81811015611e2d57602081850181015186830182015201611e11565b506000602082860101526020601f19601f83011685010191505092915050565b634e487b7160e01b600052602160045260246000fd5b60058110611e8157634e487b7160e01b600052602160045260246000fd5b9052565b6000610160825184526020830151611ea860208601826001600160a01b03169052565b506040830151816040860152611ec082860182611e07565b91505060608301518482036060860152611eda8282611e07565b91505060808301518482036080860152611ef48282611e07565b91505060a083015160a085015260c083015160c085015260e083015160e085015261010080840151818601525061012080840151818601525061014080840151611f4082870182611e63565b5090949350505050565b6000602080830181845280855180835260408601915060408160051b870101925083870160005b82811015611f9f57603f19888603018452611f8d858351611e85565b94509285019290850190600101611f71565b5092979650505050505050565b602081526000611fbf6020830184611e85565b9392505050565b600181811c90821680611fda57607f821691505b602082108103611ffa57634e487b7160e01b600052602260045260246000fd5b50919050565b601f821115611b3057600081815260208120601f850160051c810160208610156120275750805b601f850160051c820191505b8181101561204657828155600101612033565b505050505050565b815167ffffffffffffffff81111561206857612068611ba8565b61207c816120768454611fc6565b84612000565b602080601f8311600181146120b157600084156120995750858301515b600019600386901b1c1916600185901b178555612046565b600085815260208120601f198616915b828110156120e0578886015182559484019460019091019084016120c1565b50858210156120fe5787850151600019600388901b60f8161c191681555b5050505050600190811b01905550565b634e487b7160e01b600052601160045260246000fd5b808201808211156121375761213761210e565b92915050565b60006001820161214f5761214f61210e565b5060010190565b634e487b7160e01b600052603260045260246000fd5b602080825260139082015272556e617574686f72697a656420456e7469747960681b604082015260600190565b818103818111156121375761213761210e565b80820281158282048414176121375761213761210e565b6000826121e057634e487b7160e01b600052601260045260246000fd5b50049056feaee8e5d3bbb2f71a951b5632cee20f7ac487b9f8ab4f66a236f7694b13af7c6aa2646970667358221220cae0b40c724e91cd462ff3982b5beeedd4183fde41e07c7031272ce05068513164736f6c63430008110033",
  "linkReferences": {},
  "deployedLinkReferences": {}
}